{
  "contractName": "MyDeFiProject",
  "abi": [
    {
      "inputs": [
        {
          "internalType": "address",
          "name": "_comptroller",
          "type": "address"
        },
        {
          "internalType": "address",
          "name": "_priceOracle",
          "type": "address"
        }
      ],
      "stateMutability": "nonpayable",
      "type": "constructor"
    },
    {
      "inputs": [],
      "name": "comptroller",
      "outputs": [
        {
          "internalType": "contract ComptrollerInterface",
          "name": "",
          "type": "address"
        }
      ],
      "stateMutability": "view",
      "type": "function",
      "constant": true
    },
    {
      "inputs": [],
      "name": "priceOracle",
      "outputs": [
        {
          "internalType": "contract PriceOracleInterface",
          "name": "",
          "type": "address"
        }
      ],
      "stateMutability": "view",
      "type": "function",
      "constant": true
    },
    {
      "inputs": [
        {
          "internalType": "address",
          "name": "cTokenAddress",
          "type": "address"
        },
        {
          "internalType": "uint256",
          "name": "underlyingAmount",
          "type": "uint256"
        }
      ],
      "name": "supply",
      "outputs": [],
      "stateMutability": "nonpayable",
      "type": "function"
    },
    {
      "inputs": [
        {
          "internalType": "address",
          "name": "cTokenAddress",
          "type": "address"
        }
      ],
      "name": "testing",
      "outputs": [
        {
          "internalType": "uint256",
          "name": "",
          "type": "uint256"
        }
      ],
      "stateMutability": "view",
      "type": "function",
      "constant": true
    },
    {
      "inputs": [
        {
          "internalType": "address",
          "name": "cTokenAddress",
          "type": "address"
        }
      ],
      "name": "testing2",
      "outputs": [
        {
          "internalType": "contract CTokenInterface",
          "name": "",
          "type": "address"
        }
      ],
      "stateMutability": "view",
      "type": "function",
      "constant": true
    },
    {
      "inputs": [
        {
          "internalType": "address",
          "name": "cTokenAddress",
          "type": "address"
        }
      ],
      "name": "getbalance",
      "outputs": [
        {
          "internalType": "uint256",
          "name": "",
          "type": "uint256"
        },
        {
          "internalType": "uint256",
          "name": "",
          "type": "uint256"
        }
      ],
      "stateMutability": "view",
      "type": "function",
      "constant": true
    },
    {
      "inputs": [
        {
          "internalType": "address",
          "name": "cTokenAddress",
          "type": "address"
        }
      ],
      "name": "getbalanceAddress",
      "outputs": [
        {
          "internalType": "uint256",
          "name": "",
          "type": "uint256"
        },
        {
          "internalType": "uint256",
          "name": "",
          "type": "uint256"
        }
      ],
      "stateMutability": "view",
      "type": "function",
      "constant": true
    },
    {
      "inputs": [
        {
          "internalType": "address",
          "name": "cTokenAddress",
          "type": "address"
        }
      ],
      "name": "getaddress",
      "outputs": [
        {
          "internalType": "address",
          "name": "",
          "type": "address"
        }
      ],
      "stateMutability": "view",
      "type": "function",
      "constant": true
    },
    {
      "inputs": [
        {
          "internalType": "address",
          "name": "cTokenAddress",
          "type": "address"
        },
        {
          "internalType": "uint256",
          "name": "cTokenAmount",
          "type": "uint256"
        }
      ],
      "name": "redeem",
      "outputs": [],
      "stateMutability": "nonpayable",
      "type": "function"
    },
    {
      "inputs": [
        {
          "internalType": "address",
          "name": "cTokenAddress",
          "type": "address"
        }
      ],
      "name": "enterMarket",
      "outputs": [],
      "stateMutability": "nonpayable",
      "type": "function"
    },
    {
      "inputs": [
        {
          "internalType": "address",
          "name": "cTokenAddress",
          "type": "address"
        },
        {
          "internalType": "uint256",
          "name": "borrowAmount",
          "type": "uint256"
        }
      ],
      "name": "borrow",
      "outputs": [],
      "stateMutability": "nonpayable",
      "type": "function"
    },
    {
      "inputs": [
        {
          "internalType": "address",
          "name": "cTokenAddress",
          "type": "address"
        },
        {
          "internalType": "uint256",
          "name": "underlyingAmount",
          "type": "uint256"
        }
      ],
      "name": "repayBorrow",
      "outputs": [],
      "stateMutability": "nonpayable",
      "type": "function"
    },
    {
      "inputs": [
        {
          "internalType": "address",
          "name": "cTokenAddress",
          "type": "address"
        }
      ],
      "name": "getMaxBorrow",
      "outputs": [
        {
          "internalType": "uint256",
          "name": "",
          "type": "uint256"
        }
      ],
      "stateMutability": "view",
      "type": "function",
      "constant": true
    }
  ],
  "bytecode": "0x60806040523480156200001157600080fd5b5060405162001f2a38038062001f2a8339818101604052810190620000379190620000d7565b816000806101000a81548173ffffffffffffffffffffffffffffffffffffffff021916908373ffffffffffffffffffffffffffffffffffffffff16021790555080600160006101000a81548173ffffffffffffffffffffffffffffffffffffffff021916908373ffffffffffffffffffffffffffffffffffffffff160217905550505062000166565b600081519050620000d1816200014c565b92915050565b60008060408385031215620000eb57600080fd5b6000620000fb85828601620000c0565b92505060206200010e85828601620000c0565b9150509250929050565b600062000125826200012c565b9050919050565b600073ffffffffffffffffffffffffffffffffffffffff82169050919050565b620001578162000118565b81146200016357600080fd5b50565b611db480620001766000396000f3fe608060405234801561001057600080fd5b50600436106100cf5760003560e01c80636859fe131161008c578063eeea7ea511610066578063eeea7ea514610212578063f2b9fdb814610242578063f54587481461025e578063fd1c317a1461028e576100cf565b80636859fe13146101955780637333fdbd146101c5578063abdb5ea8146101f6576100cf565b80631e9a6950146100d45780632630c12f146100f05780633fe5d4251461010e5780634b8a35291461012a5780635fe3b567146101465780636811617714610164575b600080fd5b6100ee60048036038101906100e991906113e6565b6102be565b005b6100f861039b565b6040516101059190611765565b60405180910390f35b61012860048036038101906101239190611394565b6103c1565b005b610144600480360381019061013f91906113e6565b6105e8565b005b61014e610748565b60405161015b919061174a565b60405180910390f35b61017e60048036038101906101799190611394565b61076c565b60405161018c92919061187b565b60405180910390f35b6101af60048036038101906101aa9190611394565b610913565b6040516101bc9190611860565b60405180910390f35b6101df60048036038101906101da9190611394565b610a2d565b6040516101ed92919061187b565b60405180910390f35b610210600480360381019061020b91906113e6565b610bd4565b005b61022c60048036038101906102279190611394565b610dc2565b604051610239919061172f565b60405180910390f35b61025c600480360381019061025791906113e6565b610dd1565b005b61027860048036038101906102739190611394565b610fbf565b60405161028591906116c9565b60405180910390f35b6102a860048036038101906102a39190611394565b611051565b6040516102b59190611860565b60405180910390f35b600082905060008173ffffffffffffffffffffffffffffffffffffffff1663db006a75846040518263ffffffff1660e01b81526004016102fe9190611860565b602060405180830381600087803b15801561031857600080fd5b505af115801561032c573d6000803e3d6000fd5b505050506040513d601f19601f82011682018060405250810190610350919061148c565b905060008114610395576040517f08c379a000000000000000000000000000000000000000000000000000000000815260040161038c90611840565b60405180910390fd5b50505050565b600160009054906101000a900473ffffffffffffffffffffffffffffffffffffffff1681565b6000600167ffffffffffffffff811115610404577f4e487b7100000000000000000000000000000000000000000000000000000000600052604160045260246000fd5b6040519080825280602002602001820160405280156104325781602001602082028036833780820191505090505b5090508181600081518110610470577f4e487b7100000000000000000000000000000000000000000000000000000000600052603260045260246000fd5b602002602001019073ffffffffffffffffffffffffffffffffffffffff16908173ffffffffffffffffffffffffffffffffffffffff168152505060008060009054906101000a900473ffffffffffffffffffffffffffffffffffffffff1673ffffffffffffffffffffffffffffffffffffffff1663c2998238836040518263ffffffff1660e01b8152600401610506919061170d565b600060405180830381600087803b15801561052057600080fd5b505af1158015610534573d6000803e3d6000fd5b505050506040513d6000823e3d601f19601f8201168201806040525081019061055d9190611422565b905060008160008151811061059b577f4e487b7100000000000000000000000000000000000000000000000000000000600052603260045260246000fd5b6020026020010151146105e3576040517f08c379a00000000000000000000000000000000000000000000000000000000081526004016105da906117a0565b60405180910390fd5b505050565b600082905060008173ffffffffffffffffffffffffffffffffffffffff16636f307dc36040518163ffffffff1660e01b815260040160206040518083038186803b15801561063557600080fd5b505afa158015610649573d6000803e3d6000fd5b505050506040513d601f19601f8201168201806040525081019061066d91906113bd565b905060008273ffffffffffffffffffffffffffffffffffffffff1663c5ebeaec856040518263ffffffff1660e01b81526004016106aa9190611860565b602060405180830381600087803b1580156106c457600080fd5b505af11580156106d8573d6000803e3d6000fd5b505050506040513d601f19601f820116820180604052508101906106fc919061148c565b905060008114610741576040517f08c379a0000000000000000000000000000000000000000000000000000000008152600401610738906117e0565b60405180910390fd5b5050505050565b60008054906101000a900473ffffffffffffffffffffffffffffffffffffffff1681565b600080600083905060008173ffffffffffffffffffffffffffffffffffffffff16636f307dc36040518163ffffffff1660e01b815260040160206040518083038186803b1580156107bc57600080fd5b505afa1580156107d0573d6000803e3d6000fd5b505050506040513d601f19601f820116820180604052508101906107f491906113bd565b90508073ffffffffffffffffffffffffffffffffffffffff166370a08231336040518263ffffffff1660e01b815260040161082f91906116c9565b60206040518083038186803b15801561084757600080fd5b505afa15801561085b573d6000803e3d6000fd5b505050506040513d601f19601f8201168201806040525081019061087f919061148c565b8573ffffffffffffffffffffffffffffffffffffffff166370a08231336040518263ffffffff1660e01b81526004016108b891906116c9565b60206040518083038186803b1580156108d057600080fd5b505afa1580156108e4573d6000803e3d6000fd5b505050506040513d601f19601f82011682018060405250810190610908919061148c565b935093505050915091565b60008082905060008173ffffffffffffffffffffffffffffffffffffffff16636f307dc36040518163ffffffff1660e01b815260040160206040518083038186803b15801561096157600080fd5b505afa158015610975573d6000803e3d6000fd5b505050506040513d601f19601f8201168201806040525081019061099991906113bd565b90508073ffffffffffffffffffffffffffffffffffffffff166370a08231336040518263ffffffff1660e01b81526004016109d491906116c9565b60206040518083038186803b1580156109ec57600080fd5b505afa158015610a00573d6000803e3d6000fd5b505050506040513d601f19601f82011682018060405250810190610a24919061148c565b92505050919050565b600080600083905060008173ffffffffffffffffffffffffffffffffffffffff16636f307dc36040518163ffffffff1660e01b815260040160206040518083038186803b158015610a7d57600080fd5b505afa158015610a91573d6000803e3d6000fd5b505050506040513d601f19601f82011682018060405250810190610ab591906113bd565b90508073ffffffffffffffffffffffffffffffffffffffff166370a08231306040518263ffffffff1660e01b8152600401610af091906116c9565b60206040518083038186803b158015610b0857600080fd5b505afa158015610b1c573d6000803e3d6000fd5b505050506040513d601f19601f82011682018060405250810190610b40919061148c565b8573ffffffffffffffffffffffffffffffffffffffff166370a08231306040518263ffffffff1660e01b8152600401610b7991906116c9565b60206040518083038186803b158015610b9157600080fd5b505afa158015610ba5573d6000803e3d6000fd5b505050506040513d601f19601f82011682018060405250810190610bc9919061148c565b935093505050915091565b600082905060008173ffffffffffffffffffffffffffffffffffffffff16636f307dc36040518163ffffffff1660e01b815260040160206040518083038186803b158015610c2157600080fd5b505afa158015610c35573d6000803e3d6000fd5b505050506040513d601f19601f82011682018060405250810190610c5991906113bd565b90508073ffffffffffffffffffffffffffffffffffffffff1663095ea7b385856040518363ffffffff1660e01b8152600401610c969291906116e4565b602060405180830381600087803b158015610cb057600080fd5b505af1158015610cc4573d6000803e3d6000fd5b505050506040513d601f19601f82011682018060405250810190610ce89190611463565b5060008273ffffffffffffffffffffffffffffffffffffffff16630e752702856040518263ffffffff1660e01b8152600401610d249190611860565b602060405180830381600087803b158015610d3e57600080fd5b505af1158015610d52573d6000803e3d6000fd5b505050506040513d601f19601f82011682018060405250810190610d76919061148c565b905060008114610dbb576040517f08c379a0000000000000000000000000000000000000000000000000000000008152600401610db2906117e0565b60405180910390fd5b5050505050565b60008082905080915050919050565b600082905060008173ffffffffffffffffffffffffffffffffffffffff16636f307dc36040518163ffffffff1660e01b815260040160206040518083038186803b158015610e1e57600080fd5b505afa158015610e32573d6000803e3d6000fd5b505050506040513d601f19601f82011682018060405250810190610e5691906113bd565b90508073ffffffffffffffffffffffffffffffffffffffff1663095ea7b385856040518363ffffffff1660e01b8152600401610e939291906116e4565b602060405180830381600087803b158015610ead57600080fd5b505af1158015610ec1573d6000803e3d6000fd5b505050506040513d601f19601f82011682018060405250810190610ee59190611463565b5060008273ffffffffffffffffffffffffffffffffffffffff1663a0712d68856040518263ffffffff1660e01b8152600401610f219190611860565b602060405180830381600087803b158015610f3b57600080fd5b505af1158015610f4f573d6000803e3d6000fd5b505050506040513d601f19601f82011682018060405250810190610f73919061148c565b905060008114610fb8576040517f08c379a0000000000000000000000000000000000000000000000000000000008152600401610faf90611820565b60405180910390fd5b5050505050565b60008082905060008173ffffffffffffffffffffffffffffffffffffffff16636f307dc36040518163ffffffff1660e01b815260040160206040518083038186803b15801561100d57600080fd5b505afa158015611021573d6000803e3d6000fd5b505050506040513d601f19601f8201168201806040525081019061104591906113bd565b90508092505050919050565b60008060008060008054906101000a900473ffffffffffffffffffffffffffffffffffffffff1673ffffffffffffffffffffffffffffffffffffffff16635ec88c79306040518263ffffffff1660e01b81526004016110b091906116c9565b60606040518083038186803b1580156110c857600080fd5b505afa1580156110dc573d6000803e3d6000fd5b505050506040513d601f19601f8201168201806040525081019061110091906114b5565b92509250925060008314611149576040517f08c379a000000000000000000000000000000000000000000000000000000000815260040161114090611780565b60405180910390fd5b6000811461118c576040517f08c379a000000000000000000000000000000000000000000000000000000000815260040161118390611800565b60405180910390fd5b600082116111cf576040517f08c379a00000000000000000000000000000000000000000000000000000000081526004016111c6906117c0565b60405180910390fd5b6000600160009054906101000a900473ffffffffffffffffffffffffffffffffffffffff1673ffffffffffffffffffffffffffffffffffffffff1663fc57d4df876040518263ffffffff1660e01b815260040161122c91906116c9565b60206040518083038186803b15801561124457600080fd5b505afa158015611258573d6000803e3d6000fd5b505050506040513d601f19601f8201168201806040525081019061127c919061148c565b9050808361128a919061193f565b945050505050919050565b60006112a86112a3846118c9565b6118a4565b905080838252602082019050828560208602820111156112c757600080fd5b60005b858110156112f757816112dd888261137f565b8452602084019350602083019250506001810190506112ca565b5050509392505050565b60008135905061131081611d39565b92915050565b60008151905061132581611d39565b92915050565b600082601f83011261133c57600080fd5b815161134c848260208601611295565b91505092915050565b60008151905061136481611d50565b92915050565b60008135905061137981611d67565b92915050565b60008151905061138e81611d67565b92915050565b6000602082840312156113a657600080fd5b60006113b484828501611301565b91505092915050565b6000602082840312156113cf57600080fd5b60006113dd84828501611316565b91505092915050565b600080604083850312156113f957600080fd5b600061140785828601611301565b92505060206114188582860161136a565b9150509250929050565b60006020828403121561143457600080fd5b600082015167ffffffffffffffff81111561144e57600080fd5b61145a8482850161132b565b91505092915050565b60006020828403121561147557600080fd5b600061148384828501611355565b91505092915050565b60006020828403121561149e57600080fd5b60006114ac8482850161137f565b91505092915050565b6000806000606084860312156114ca57600080fd5b60006114d88682870161137f565b93505060206114e98682870161137f565b92505060406114fa8682870161137f565b9150509250925092565b6000611510838361151c565b60208301905092915050565b61152581611970565b82525050565b61153481611970565b82525050565b600061154582611905565b61154f818561191d565b935061155a836118f5565b8060005b8381101561158b5781516115728882611504565b975061157d83611910565b92505060018101905061155e565b5085935050505092915050565b6115a1816119b8565b82525050565b6115b0816119dc565b82525050565b6115bf81611a00565b82525050565b60006115d260548361192e565b91506115dd82611ac4565b606082019050919050565b60006115f5604c8361192e565b915061160082611b39565b606082019050919050565b600061161860208361192e565b915061162382611bae565b602082019050919050565b600061163b60428361192e565b915061164682611bd7565b606082019050919050565b600061165e60128361192e565b915061166982611c4c565b602082019050919050565b600061168160408361192e565b915061168c82611c75565b604082019050919050565b60006116a460478361192e565b91506116af82611cc4565b606082019050919050565b6116c3816119ae565b82525050565b60006020820190506116de600083018461152b565b92915050565b60006040820190506116f9600083018561152b565b61170660208301846116ba565b9392505050565b60006020820190508181036000830152611727818461153a565b905092915050565b60006020820190506117446000830184611598565b92915050565b600060208201905061175f60008301846115a7565b92915050565b600060208201905061177a60008301846115b6565b92915050565b60006020820190508181036000830152611799816115c5565b9050919050565b600060208201905081810360008301526117b9816115e8565b9050919050565b600060208201905081810360008301526117d98161160b565b9050919050565b600060208201905081810360008301526117f98161162e565b9050919050565b6000602082019050818103600083015261181981611651565b9050919050565b6000602082019050818103600083015261183981611674565b9050919050565b6000602082019050818103600083015261185981611697565b9050919050565b600060208201905061187560008301846116ba565b92915050565b600060408201905061189060008301856116ba565b61189d60208301846116ba565b9392505050565b60006118ae6118bf565b90506118ba8282611a24565b919050565b6000604051905090565b600067ffffffffffffffff8211156118e4576118e3611a84565b5b602082029050602081019050919050565b6000819050602082019050919050565b600081519050919050565b6000602082019050919050565b600082825260208201905092915050565b600082825260208201905092915050565b600061194a826119ae565b9150611955836119ae565b92508261196557611964611a55565b5b828204905092915050565b600061197b8261198e565b9050919050565b60008115159050919050565b600073ffffffffffffffffffffffffffffffffffffffff82169050919050565b6000819050919050565b60006119c3826119ca565b9050919050565b60006119d58261198e565b9050919050565b60006119e7826119ee565b9050919050565b60006119f98261198e565b9050919050565b6000611a0b82611a12565b9050919050565b6000611a1d8261198e565b9050919050565b611a2d82611ab3565b810181811067ffffffffffffffff82111715611a4c57611a4b611a84565b5b80604052505050565b7f4e487b7100000000000000000000000000000000000000000000000000000000600052601260045260246000fd5b7f4e487b7100000000000000000000000000000000000000000000000000000000600052604160045260246000fd5b6000601f19601f8301169050919050565b7f636f6d7074726f6c6c6572236765744163636f756e744c69717569646974792860008201527f29206661696c65642e2073656520436f6d706f756e64204572726f725265706f60208201527f727465722e736f6c20666f722064657461696c73000000000000000000000000604082015250565b7f636f6d7074726f6c6c657223656e7465724d61726b65742829206661696c656460008201527f2e2073656520436f6d706f756e64204572726f725265706f727465722e736f6c60208201527f20666f722064657461696c730000000000000000000000000000000000000000604082015250565b7f6163636f756e7420646f6573206e6f74206861766520636f6c6c61746572616c600082015250565b7f63546f6b656e23626f72726f772829206661696c65642e2073656520436f6d7060008201527f6f756e64204572726f725265706f727465722e736f6c20666f7220646574616960208201527f6c73000000000000000000000000000000000000000000000000000000000000604082015250565b7f6163636f756e7420756e64657277617465720000000000000000000000000000600082015250565b7f63546f6b656e236d696e742829206661696c65642e2073656520436f6d706f7560008201527f6e64204572726f725265706f727465722e736f6c20666f722064657461696c73602082015250565b7f63546f6b656e2372656465656d2829206661696c65642e2073656520436f6d7060008201527f6f756e64204572726f725265706f727465722e736f6c20666f72206d6f72652060208201527f64657461696c7300000000000000000000000000000000000000000000000000604082015250565b611d4281611970565b8114611d4d57600080fd5b50565b611d5981611982565b8114611d6457600080fd5b50565b611d70816119ae565b8114611d7b57600080fd5b5056fea26469706673582212203b2b2f67319325d81b14e8ca894e2b837d2275248e00298bfbe0a4a9775fdf9064736f6c63430008040033",
  "immutableReferences": {},
  "source": "pragma solidity ^0.8.4;\n\nimport '@openzeppelin/contracts/token/ERC20/IERC20.sol';\nimport './CTokenInterface.sol';\nimport './ComptrollerInterface.sol';\nimport './PriceOracleInterface.sol';\n\ncontract MyDeFiProject {\n  ComptrollerInterface public comptroller;\n  PriceOracleInterface public priceOracle;\n\n  constructor(\n    address _comptroller,\n    address _priceOracle\n  ) {\n    comptroller = ComptrollerInterface(_comptroller);\n    priceOracle = PriceOracleInterface(_priceOracle);\n  }\n\n  function supply(address cTokenAddress, uint underlyingAmount) public {\n    CTokenInterface cToken = CTokenInterface(cTokenAddress);\n    address underlyingAddress = cToken.underlying(); \n    IERC20(underlyingAddress).approve(cTokenAddress, underlyingAmount);\n    uint result = cToken.mint(underlyingAmount);\n    require(\n      result == 0, \n      'cToken#mint() failed. see Compound ErrorReporter.sol for details'\n    );\n  \n  }\n\n  function testing(address cTokenAddress)external view returns(uint){\n    CTokenInterface cToken = CTokenInterface(cTokenAddress);\n    address underlyingAddress = cToken.underlying(); \n    // IERC20(underlyingAddress).approve(cTokenAddress, underlyingAmount);\n    return IERC20(underlyingAddress).balanceOf(msg.sender);\n  }\n  \n  function testing2(address cTokenAddress)external view returns(CTokenInterface){\n    CTokenInterface cToken = CTokenInterface(cTokenAddress);\n    // address underlyingAddress = cToken.underlying(); \n    // IERC20(underlyingAddress).approve(cTokenAddress, underlyingAmount);\n    return cToken;\n  }\n \n  function getbalance(address cTokenAddress)external view returns(uint,uint){\n    CTokenInterface cToken = CTokenInterface(cTokenAddress);\n    address underlyingAddress = cToken.underlying(); \n    // address underlyingAddress = cTokenAddress.underlying(); \n    return (IERC20(underlyingAddress).balanceOf(msg.sender), IERC20(cTokenAddress).balanceOf(msg.sender));\n  }\n  \n  function getbalanceAddress(address cTokenAddress)external view returns(uint,uint){\n    CTokenInterface cToken = CTokenInterface(cTokenAddress);\n    address underlyingAddress = cToken.underlying(); \n    // address underlyingAddress = cTokenAddress.underlying(); \n    return (IERC20(underlyingAddress).balanceOf(address(this)), IERC20(cTokenAddress).balanceOf(address(this)));\n  }\n\n  function getaddress(address cTokenAddress)external view returns(address){\n    CTokenInterface cToken = CTokenInterface(cTokenAddress);\n    address underlyingAddress = cToken.underlying(); \n    return underlyingAddress;\n  }\n\n\n  function redeem(address cTokenAddress, uint cTokenAmount) external {\n    CTokenInterface cToken = CTokenInterface(cTokenAddress);\n    uint result = cToken.redeem(cTokenAmount);\n    require(\n      result == 0,\n      'cToken#redeem() failed. see Compound ErrorReporter.sol for more details'\n    );\n  }\n\n  function enterMarket(address cTokenAddress) external {\n    address[] memory markets = new address[](1);\n    markets[0] = cTokenAddress; \n    uint[] memory results = comptroller.enterMarkets(markets);\n    require(\n      results[0] == 0, \n      'comptroller#enterMarket() failed. see Compound ErrorReporter.sol for details'\n    ); \n  }\n\n  function borrow(address cTokenAddress, uint borrowAmount) external {\n    CTokenInterface cToken = CTokenInterface(cTokenAddress);\n    address underlyingAddress = cToken.underlying(); \n    uint result = cToken.borrow(borrowAmount);\n    require(\n      result == 0, \n      'cToken#borrow() failed. see Compound ErrorReporter.sol for details'\n    ); \n  }\n\n  function repayBorrow(address cTokenAddress, uint underlyingAmount) external {\n    CTokenInterface cToken = CTokenInterface(cTokenAddress);\n    address underlyingAddress = cToken.underlying(); \n    IERC20(underlyingAddress).approve(cTokenAddress, underlyingAmount);\n    uint result = cToken.repayBorrow(underlyingAmount);\n    require(\n      result == 0, \n      'cToken#borrow() failed. see Compound ErrorReporter.sol for details'\n    ); \n  }\n\n  function getMaxBorrow(address cTokenAddress) external view returns(uint) {\n    (uint result, uint liquidity, uint shortfall) = comptroller\n      .getAccountLiquidity(address(this));\n    require(\n      result == 0, \n      'comptroller#getAccountLiquidity() failed. see Compound ErrorReporter.sol for details'\n    ); \n    require(shortfall == 0, 'account underwater');\n    require(liquidity > 0, 'account does not have collateral');\n    uint underlyingPrice = priceOracle.getUnderlyingPrice(cTokenAddress);\n    return liquidity / underlyingPrice;\n  }\n\n}\n",
  "sourcePath": "/Users/gustavo/Desktop/project1/compound/contracts/MyDeFiProject.sol",
  "compiler": {
    "name": "solc",
    "version": "0.8.4+commit.c7e474f2.Emscripten.clang"
  },
  "schemaVersion": "3.3.4",
  "updatedAt": "2021-04-25T01:12:24.500Z",
  "networkType": "ethereum",
  "devdoc": {
    "kind": "dev",
    "methods": {},
    "version": 1
  },
  "userdoc": {
    "kind": "user",
    "methods": {},
    "version": 1
  }
}